:1000000011C033C032C031C030C02FC02EC02DC08F
:100010002CC02BC02AC0C6C128C027C026C025C0FE
:1000200024C0C80111241FBECFEDCDBF10E0A0E653
:10003000B0E0E0E5F5E002C005900D92A837B10709
:10004000D9F720E0A8E7B0E001C01D92AC38B207B4
:10005000E1F710E0C2E1D0E003C02197FE015AD2DF
:10006000C131D107D1F752D271C2CACF9BB39078B8
:10007000E82FF0E0ED59FF4F8081892B8BBB08956D
:10008000FF920F931F93CF93DF93EC01F62E08811D
:100090001981C80145D2F81619F06F2DC80148D250
:1000A000CE01DF91CF911F910F91FF9008950F9393
:1000B0001F93C2D1009178001091790020917A00AD
:1000C00030917B00601B710B820B930B63337105C6
:1000D0008105910508F47AC080916100B39927C029
:1000E000833078F486E080936100A6D16093780035
:1000F0007093790080937A0090937B0080916100E7
:100100004DC09AD1009178001091790020917A0029
:1001100030917B00601B710B820B930B693B7B4022
:100120008105910558F385E080936100E7CF833026
:10013000C0F182E0809361007FD10091780010913E
:10014000790020917A0030917B00601B710B820B4B
:10015000930B60937C0070937D0080937E0090935E
:100160007F006AD1609378007093790080937A0061
:1001700090937B0080917C0090917D00A0917E0007
:10018000B0917F00893B2BE09207A105B10504F5F2
:10019000893E9340A105B105ECF084E01F910F91D9
:1001A00008954AD1009178001091790020917A0049
:1001B00030917B00601B710B820B930B613D77408C
:1001C0008105910508F49ACF81E0AECF82E0E6CFB9
:1001D00085E0E4CF83E0E2CF843108F447CF08958F
:1001E00098B3987F282F2770922B98BB83FD02C06D
:1001F000DF980895DF9A08950F931F93CF93DF93AD
:1002000000D0CDB7DD278091800082508D3748F037
:1002100082E0809380001A82198262E0CE0101960A
:100220002FDF0091800010E00F5F1F4FC80178D1D1
:100230006FEF680F60938200C8017AD180918200CD
:1002400081110EC0809180008E5F8F37E0F5809322
:100250008000609180001A821982CE01019610DF21
:10026000809181008F708093810083E1FFDE6AEFCF
:1002700070E080E090E013D1609181008091800077
:1002800090E09A838983CE010196FADE83E1EEDE67
:1002900064E670E080E090E002D1809180009CDF15
:1002A0006AEF70E080E090E0FAD083E1DFDE66E99B
:1002B00070E080E090E0F3D0CE5FCDBFDF91CF91D2
:1002C0001F910F91089582E0C2CF8FEF8ABB87E024
:1002D00087BB90E080E024D1809380008F3748F086
:1002E00080E07EDF82E08093800062E090E080E04A
:1002F0001FC18E778093800090E012D18F70809321
:1003000081006EDF8091800082958F7065DF6AEFDB
:1003100070E080E090E0C3D0809180008F705CDF5F
:100320006AEF70E080E090E0BAC080918100909127
:100330006200891749F054DF809181008F704CDF93
:100340008091810080936200B2DE809382008130D0
:1003500059F490916000911116C0809360004CDFB9
:10036000809181008F7038CF833039F48091810083
:100370008F5F8F708093810004C0843029F41092C5
:1003800081001092600008958530E9F788E0F2CF8F
:1003900053D0609378007093790080937A009093A3
:1003A0007B0008951F920F920FB60F9211242F9386
:1003B0003F938F939F93AF93BF93809184009091CD
:1003C0008500A0918600B09187003091830026E0DF
:1003D000230F2D3768F129E8230F0396A11DB11DC6
:1003E000209383008093840090938500A0938600DF
:1003F000B09387008091880090918900A0918A0035
:10040000B0918B000196A11DB11D8093880090933F
:100410008900A0938A00B0938B00BF91AF919F9108
:100420008F913F912F910F900FBE0F901F901895B5
:100430000296A11DB11DD4CF2FB7F894609184000E
:100440007091850080918600909187002FBF08955C
:100450003FB7F8948091880090918900A0918A001C
:10046000B0918B0022B708B600FE05C02F3F19F0EF
:100470000196A11DB11D3FBFBA2FA92F982F882724
:10048000BC01CD01620F711D811D911D43E0660FFE
:10049000771F881F991F4A95D1F708950895CF9225
:1004A000DF92EF92FF92CF93DF936B017C01D0DF5D
:1004B000EB01C114D104E104F10461F0EFDFC8DF06
:1004C0006C1B7D0B683E7340A0F3C114D104E104A2
:1004D000F10439F4DF91CF91FF90EF90DF90CF904E
:1004E000089581E0C81AD108E108F108C851DC4F2D
:1004F000E6CF83E080BF83BF789499B7916099BFBE
:1005000091E09FBD8EBD86E886B90895F2DFDDDEFD
:100510000CDFFECFEE0FFF1F0590F491E02D099444
:10052000E199FECF1FBA8EBBE09A99278DB308954B
:10053000262FE199FECF1CBA1FBA8EBB2DBB0FB67A
:10054000F894E29AE19A0FBE01960895F894FFCFCD
:100550000102113F065B4F666D7D077F6F777C5808
:080560005E79715C484900005E
:00000001FF
