:1000000010C02AC029C028C027C026C025C024C0CF
:1000100023C022C021C0E2C01FC01EC01DC01CC022
:100020001BC011241FBECFE5D1E0DEBFCDBF10E065
:10003000A0E6B0E0ECE7F3E002C005900D92A43733
:10004000B107D9F720E0A4E7B0E001C01D92A838BD
:10005000B207E1F777D190C1D3CF9BB39078E82F67
:10006000F0E0E05AFF4F8081892B8BBB08950F93FE
:100070001F9380917400B39927C081110FC081E054
:1000800080937400F5D06093750070937600809330
:100090007700909378008091740042C0E9D000917D
:1000A0007500109176002091770030917800601BE8
:1000B000710B820B930B693873418105910558F3DD
:1000C00085E080937400E7CF882329F310927400B1
:1000D000CFD000917500109176002091770030917B
:1000E0007800DC01CB01801B910BA20BB30B80933A
:1000F000790090937A00A0937B00B0937C008938BC
:1001000023E19207A105B10574F4813D27E0920730
:10011000A105B10554F4C397A105B10544F082E0EF
:100120001F910F91089584E0FBCF83E0F9CF81E028
:10013000F7CF843108F491CF089598B3987F282F92
:100140002770922B98BB83FD02C0DF980895DF9A39
:1001500008958FEF8ABB87E087BB90E080E0F6D000
:100160008F7080937D000895CF9380917D008F7074
:10017000E0DF80917D00E1DF7ADF80937E008230D6
:1001800061F480917D008F5F8F7080937D006AE0C5
:1001900070E080E090E0CF919EC0833019F410921F
:1001A0007D00F5CF843099F7C0917D0090E080E02C
:1001B000CDD0C81721F06C2F90E080E0CFD082E145
:1001C0004CDF64EF71E080E090E085D083E145DFB3
:1001D00064EF71E080E090E07ED0D9CF1F920F9263
:1001E0000FB60F9211242F933F938F939F93AF934A
:1001F000BF938091800090918100A0918200B09186
:10020000830030917F0026E0230F2D3768F129E825
:10021000230F0396A11DB11D20937F0080938000C2
:1002200090938100A0938200B0938300809184001A
:1002300090918500A0918600B09187000196A11D44
:10024000B11D8093840090938500A0938600B093A5
:100250008700BF91AF919F918F913F912F910F9008
:100260000FBE0F901F9018950296A11DB11DD4CFFF
:100270002FB7F89460918000709181008091820086
:10028000909183002FBF08953FB7F8948091840028
:1002900090918500A0918600B091870022B708B6A2
:1002A00000FE05C02F3F19F00196A11DB11D3FBFF3
:1002B000BA2FA92F982F8827BC01CD01620F711D7D
:1002C000811D911D43E0660F771F881F991F4A9576
:1002D000D1F708950895CF92DF92EF92FF92CF93D6
:1002E000DF936B017C01D0DFEB01C114D104E10489
:1002F000F10461F0EFDFC8DF6C1B7D0B683E7340DB
:10030000A0F3C114D104E104F10439F4DF91CF91D9
:10031000FF90EF90DF90CF90089581E0C81AD10848
:10032000E108F108C851DC4FE6CF83E080BF83BF0E
:10033000789499B7916099BF91E09FBD8EBD86E892
:1003400086B90895F2DF05DF0FDFFECFE199FECF1A
:100350001FBA8EBBE09A99278DB30895262FE19995
:10036000FECF1CBA1FBA8EBB2DBB0FB6F894E29A13
:0C037000E19A0FBE01960895F894FFCFAB
:10037C003F065B4F666D7D077F6F777C585E7971AA
:04038C005C48490080
:00000001FF
