:1000000010C028C027C026C025C024C023C022C0DD
:1000100021C020C01FC07EC11DC01CC01BC01AC093
:1000200019C011241FBECFEDCDBF10E0A0E6B0E097
:10003000E4EBF4E002C005900D92A637B107D9F7C2
:1000400020E0A6E7B0E001C01D92AB38B207E1F7AF
:1000500015D22EC2D5CF9BB39078E82FF0E0EE59A1
:10006000FF4F8081892B8BBB0895FF920F931F93C5
:10007000CF93DF93EC01F62E08811981C80102D2DB
:10008000F81619F06F2DC80105D2CE01DF91CF917E
:100090001F910F91FF9008950F931F9385D10091A9
:1000A0007700109178002091790030917A00601BE0
:1000B000710B820B930B633371058105910508F475
:1000C0007EC080917600B39927C081110FC081E076
:1000D0008093760069D16093770070937800809365
:1000E000790090937A008091760051C05DD10091A3
:1000F0007700109178002091790030917A00601B90
:10010000710B820B930B693873418105910558F38C
:1001100085E080937600E7CF8823E1F110927600A6
:1001200043D10091770010917800209179003091AF
:100130007A00601B710B820B930B60937B007093B2
:100140007C0080937D0090937E002ED16093770099
:10015000709378008093790090937A0080917B006F
:1001600090917C00A0917D00B0917E00893B2BE0B6
:100170009207A105B1052CF5893E23E09207A10560
:10018000B1050CF5C397A105B105FCF083E01F9103
:100190000F91089509D10091770010917800209176
:1001A000790030917A00601B710B820B930B613DDB
:1001B00077408105910508F496CF86E0AACF80E0CC
:1001C000E6CF85E0E4CF84E0E2CF82E0E0CF843187
:1001D00008F441CF089598B3987F282F2770922B69
:1001E00098BB83FD02C0DF980895DF9A08950F93AE
:1001F0001F93CF93DF9300D0CDB7DD2780917F0091
:1002000082508F3748F082E080937F001A821982F3
:1002100062E0CE01019629DF00917F0010E00F5FC0
:100220001F4FC8012FD16FEF680F609381001A83B1
:100230000983CE01019619DF8091810081110EC0E2
:1002400080917F008E5F8138D0F480937F00609131
:100250007F001A821982CE01019607DF609180002B
:1002600080917F0090E09A838983CE010196FDDE24
:10027000CE5FCDBFDF91CF911F910F91089582E0A6
:10028000E4CF8FEF8ABB87E087BB90E080E0FAD0B5
:100290008E7780937F0090E0F5D08F708093800000
:1002A0009ACF8091800090916100891749F093DF87
:1002B000809180008F708BDF80918000809361003F
:1002C000EBDE809381008630D1F480916000811153
:1002D00020C081E0809360008ADF82E1BCDE64EFB1
:1002E00071E080E090E093D083E1B5DE64EF71E0EF
:1002F00080E090E08CD0809180008F7068CF833058
:1003000041F4809180008F5F8F7080938000109205
:10031000600008951F920F920FB60F9211242F9331
:100320003F938F939F93AF93BF938091830090915E
:100330008400A0918500B09186003091820026E073
:10034000230F2D3768F129E8230F0396A11DB11D56
:10035000209382008093830090938400A093850073
:10036000B09386008091870090918800A0918900C9
:10037000B0918A000196A11DB11D809387009093D2
:100380008800A0938900B0938A00BF91AF919F919C
:100390008F913F912F910F900FBE0F901F90189546
:1003A0000296A11DB11DD4CF2FB7F89460918300A0
:1003B0007091840080918500909186002FBF0895F0
:1003C0003FB7F8948091870090918800A0918900B0
:1003D000B0918A0022B708B600FE05C02F3F19F081
:1003E0000196A11DB11D3FBFBA2FA92F982F8827B5
:1003F000BC01CD01620F711D811D911D43E0660F8F
:10040000771F881F991F4A95D1F708950895CF92B5
:10041000DF92EF92FF92CF93DF936B017C01D0DFED
:10042000EB01C114D104E104F10461F0EFDFC8DF96
:100430006C1B7D0B683E7340A0F3C114D104E10432
:10044000F10439F4DF91CF91FF90EF90DF90CF90DE
:10045000089581E0C81AD108E108F108C851DC4FBD
:10046000E6CF83E080BF83BF789499B7916099BF4E
:1004700091E09FBD8EBD86E886B90895F2DF01DF69
:1004800010DFFECFE199FECF1FBA8EBBE09A99270D
:100490008DB30895262FE199FECF1CBA1FBA8EBBEB
:1004A0002DBB0FB6F894E29AE19A0FBE019608951B
:0404B000F894FFCFEE
:1004B40001113F065B4F666D7D077F6F777C585E49
:0604C40079715C4849005B
:00000001FF
